:020000040000FA
:1000000098E80320E56302004DFD0500D16302007E
:10001000D1630200D1630200D1630200D163020008
:100020000000000000000000000000004565020024
:10003000D163020000000000E9640200D163020005
:10004000CD660200CD660200CD660200CD660200DC
:10005000CD660200CD660200CD660200CD660200CC
:10006000CD660200CD660200CD660200CD660200BC
:10007000CD660200CD660200CD660200CD660200AC
:10008000CD660200CD660200CD660200CD6602009C
:10009000CD660200CD660200CD660200CD6602008C
:1000A000CD660200CD660200CD660200CD6602007C
:1000B000CD660200CD660200CD660200CD6602006C
:1000C000CD660200CD660200CD660200CD6602005C
:1000D000CD660200CD660200CD660200CD6602004C
:1000E000CD660200CD660200CD660200CD6602003C
:1000F000CD660200CD660200CD660200CD6602002C
:10010000CD660200CD660200CD660200CD6602001B
:10011000CD660200CD660200CD660200CD6602000B
:10012000CD660200CD660200CD660200CD660200FB
:10013000CD660200CD660200CD660200CD660200EB
:10014000CD660200CD660200CD660200CD660200DB
:04015000CD66020076
:1001580080EA101404F0F01480EA0410604081EA88
:10016800111404F0F01481EA0411614082EA1214B7
:1001780004F0F01482EA0412624083EA131404F0D3
:10018800F01483EA0413634080EA102404F47F44E3
:1001980080EA0420604081EA112404F47F4481EA63
:1001A8000421614082EA122404F47F4482EA042292
:1001B800624083EA132404F47F4483EA04236340FF
:1001C80081EA500404F0553480EA4400614083EA2F
:1001D800520404F0553482EA4402634082EA9004EF
:1001E80004F0333480EA8400624083EA910404F026
:1001F800333481EA84016340704700BF82EA900487
:1002080004F0333480EA8400624083EA910404F005
:10021800333481EA8401634081EA500404F05534A0
:1002280080EA4400614083EA520404F0553482EACB
:100238004402634080EA102404F47F4480EA0420E6
:10024800604081EA112404F47F4481EA042161407A
:1002580082EA122404F47F4482EA0422624083EA98
:10026800132404F47F4483EA0423634080EA1014CF
:1002780004F0F01480EA0410604081EA111404F0DC
:10028800F01481EA0411614082EA121404F0F014B7
:1002980082EA0412624083EA131404F0F01483EA39
:1002A80004136340704700BF2DE9F14F94464FEAAD
:1002B800930B8A68CB6808684968FFF749FF0BF118
:1002C800060E33E083EA134480EA134582EA1347B3
:1002D80046BA96EA3444604000F00F1684EA0634C1
:1002E80020F00F1684EA161054BA94EA01067240F8
:1002F80002F00F1486EA043622F00F1486EA14126C
:100308004CBA6540694001F00F1485EA043521F0C4
:100318000F1485EA14115CBA67407B4003F00F1490
:1003280087EA043723F00F1487EA1413BCE8F000B7
:100338006040694072407B4000F0E03400F01035C6
:1003480000F00F3040EA540040EAC50080EA90040B
:1003580004F0332480EA8400604001F0E03401F0C6
:10036800103501F00F3141EA540141EAC50181EA33
:10037800910404F0332481EA8401614002F0E034FE
:1003880002F0103502F00F3242EA540242EAC50286
:1003980082EA920404F0332482EA8402624003F081
:1003A800E03403F0103503F00F3343EA540343EA13
:1003B800C50383EA930404F0332483EA8403634087
:1003C80081EA324787EA134581EA354690EA06040E
:1003D80084EA034B82EA1B4280EA044484EA054427
:1003E80083EA144A85EA14448BEA044B84EA3744C6
:1003F80081EA0B4181EA164104EA0A00454082EA93
:1004080004082BEA080041408AEA0B0602EA0600C3
:1004180084EA34438AEA3A4603EA060778404540C4
:10042800414088EA38478BEA3B4007EA000985EAF9
:10043800090583EA0709464006EA0906714085EA84
:10044800010005EA3546464006EA314181EA304175
:1004580081EA364606EA304686EA3546344008EAF6
:10046800010886EA01052A4086EA364003405A40D8
:1004780081EA31431F407C4080EA030709EA070903
:1004880088EA0908544088EA020806EA0A0601EAE6
:100498000B018AEA0B0215408AEA3A4210404540AD
:1004A8008BEA3B4003405E404240174079404D4054
:1004B8004E40E443F64386EA18435D4085EA05402A
:1004C80083EA134386EA034183EA384284EA114304
:1004D80083EA04435FEA3343BEF1010E3FF6F2AE0E
:1004E8001ED4BCE8F0006040694072407B4020BCEC
:1004F800FFF784FE28606960AA60EB60BDE8F08FB2
:100508002DE9E0414FF2F00280EA1031114080EA13
:100518000130484041088208C3084FF0000E4FE7F9
:1005280000F0113001F0113102F0113203F01133F3
:1005380040EA410040EA820040EAC3004FF2F0027C
:1005480080EA1031114080EA01304840BDE8E0817E
:100558002DE9F04F02F11C050646074600EB850819
:1005680051F8040B043A46F8040BF9D14FF0010C8A
:10057800FFF7C6FF5FEA302080EA0C001ECF41403B
:100588004A4053405C401EC62000464517D04FEAFB
:100598004C0C1CF4807F18BFACF1E50C2C2DE7D077
:1005A8003C2D06D1FFF7ACFF06CF41404A4006C6B6
:1005B800100006CF41404A4006C61000D8E736E989
:1005C8000F00FFF7C5FD043D86E80F00F7D1BDE831
:1005D800F08F00BF2DE9F14F03F11C0402EB840CEE
:1005E8004FEA930B8A68CB6808684968FFF7B0FD43
:1005F8003CE9F0006040694072407B400BF1060E18
:100608004EE083EA134480EA134582EA134746BA68
:1006180096EA3444604000F00F1684EA063420F06D
:100628000F1684EA161054BA94EA0106724002F0D2
:100638000F1486EA043622F00F1486EA14124CBA14
:100648006540694001F00F1485EA043521F00F1464
:1006580085EA14115CBA67407B4003F00F1487EAFF
:10066800043723F00F1487EA141344BA44404DBAF0
:100678004D4056BA56405FBA5F4087EA174886EA47
:10068800174B84EA17464FEA38488BEA1B4485EA39
:100698001B4788EA1B4580EA3440694072407B402A
:1006A80000F0703400F0803500F00F3040EA44006C
:1006B80040EAD50080EA900404F0332480EA8400FC
:1006C800604001F0703401F0803501F00F3141EAEB
:1006D800440141EAD50181EA910404F0332481EA16
:1006E8008401614002F0703402F0803502F00F326C
:1006F80042EA440242EAD50282EA920404F0332430
:1007080082EA8402624003F0703403F0803503F01B
:100718000F3343EA440343EAD50383EA930404F01E
:10072800332483EA84036340C943DB4381EA00043A
:1007380083EA044686EA020183EA014382EA3345F2
:1007480083EA14435C4084EA00077FEA040A8AEAE1
:10075800024A8AEA010B87EA11488AEA374A80EA9C
:10076800060181EA1A418AEA030A04EA0A004540B6
:1007780088EA040707EA0B0041408AEA0B0608EA00
:10078800060084EA34428AEA3A4602EA06035840F6
:100798004540414087EA37438BEA3B4003EA00097A
:1007A80085EA090582EA0309464006EA0906714016
:1007B80085EA010005EA3546464006EA314181EA04
:1007C800304181EA364606EA304686EA3546344004
:1007D8000F4086EA010508EA050886EA3640024025
:1007E80088EA020881EA314213405C4080EA020349
:1007F80009EA030987EA0907674088EA040806EA5C
:100808000A0601EA0B018AEA0B0425408AEA3A44FF
:10081800204045408BEA3B4B02EA0B02564084EAF3
:100828000B04234059406E40694087EA364080EA0D
:10083800384080EA060380EA104481EA134585EAD5
:10084800344585EA17427D4082EA354180EA054011
:100858003CE9F0006040694072407B40BEF1010E07
:100868003FF6CFAE20BCFFF7C9FC28606960AA60DC
:10087800EB60BDE8F08F00BFFFF76ABE2DE9F00717
:1008880091E8F807B2E802105B1854EB0C04B2E8E0
:1008980002104D4156EB0C06B2E802104F4158EBDE
:1008A8000C08B2E8021059EB01095AEB0C0A80E86F
:1008B800F80780410130BDE8F00770472DE9F007DF
:1008C80091E8F807B2E802105B1A74EB0C04B2E87E
:1008D80002108D4176EB0C06B2E802108F4178EBDE
:1008E8000C08B2E8021079EB01097AEB0C0A80E8EF
:1008F800F80780414042BDE8F00770472DE9F0074E
:10090800524290E87800B1E880071740DB1918EAEE
:10091800020854EB080419EA020955EB09051AEA1A
:10092800020A56EB0A0678C090E87800B1E880071A
:1009380017407B4118EA020854EB080419EA020937
:1009480055EB09051AEA020A56EB0A0678C08041F7
:100958000130BDE8F00770472DE9F007524290E8F2
:100968007800B1E880071740DB1B18EA020874EB2F
:10097800080419EA020975EB09051AEA020A76EB76
:100988000A0678C090E87800B1E880071740BB41B4
:1009980018EA020874EB080419EA020975EB09055C
:1009A8001AEA020A76EB0A0678C080414042BDE89E
:1009B800F00770472DE9F00152424FF0040890E823
:1009C800300091E8C000A31B1340E41AF618EB1B93
:1009D8001340ED1AFF1830C0C0C1B8F10108EED1BC
:1009E800BDE8F001704700BF00B592E8DC072DE9CB
:1009F800DC07B1E8805702B4A7FB02510A95A8FBAF
:100A0800020BE7FB6310E9FB62B00B91A8FB0351F3
:100A1800EAFB6201E7FB64B5E7FB6605E8FB6615E0
:100A2800CDF830B0A9FB03B6EAFB6316ECFB6356BE
:100A3800E8FB640BE9FB641BEAFB645BECFB646B9F
:100A48000D90ACFB0230059CEEFB6250E9FB646044
:100A5800EAFB64B0E7FB6431E8FB6451069CE8FB01
:100A68006461E9FB64B1EAFB64010E93A7FB0432FD
:100A7800079CE7FB6462E8FB64B2E9FB6402EAFBFB
:100A88006412049CE9FB6453EAFB6463089CE7FB7B
:100A980064B3E8FB6403E9FB6413EAFB64230F9582
:100AA8005DF8049B99E80006DDF80080A9FB08546E
:100AB800EAFB68B4DDF81080ECFB6804EEFB681410
:100AC800E9FB6824EAFB6834DDF80480EEFB68651E
:100AD800E9FB68B5EAFB6805DDF81480ECFB6815EE
:100AE800EEFB6825E9FB6835EAFB68450F96DDF8FB
:100AF8000880AEFB0876E9FB6806EAFB6816DDF8B5
:100B08001880ECFB6826EEFB6836E9FB6846EAFBD2
:100B18006856DDF80C80ECFB68B7EEFB6807E9FB6C
:100B28006817EAFB6827DDF81C80ECFB6837EEFBEA
:100B38006847E9FB6857EAFB686708B000BD00BF73
:100B48002DE9F14F87B0FFF74FFFDDF81C8008F162
:100B5800200888E8FF00FFBC87E87F08BDE8F08F21
:100B680000B591E89857A3FB03520195A3FB040134
:100B7800E3FB6420E3FB67100292A3FB0752E3FB4D
:100B88006802E4FB6415E3FB6805E3FB6925039150
:100B9800A4FB07B6E3FB6926E3FB6A56E4FB670B95
:100BA800E4FB682BE3FB6A5BE3FB6C6B0490A4FB40
:100BB8000810E4FB6950E3FB6C60E3FB6EB0E7FBF5
:100BC8006721E4FB6951E4FB6A61E3FB6EB1E4FB76
:100BD8006E010592A7FB0832E4FB6A62E4FB6CB283
:100BE800E4FB6E02E7FB6E12E7FB6853E7FB696301
:100BF800E4FB6CB3E7FB6C03E7FB6E13E8FB6E23C7
:100C08000695A7FB0954E7FB6AB4E7FB6C04E8FB0D
:100C18006C14E8FB6E24E9FB6E34E8FB6865E7FBBF
:100C28006AB5E8FB6A05E8FB6C15E9FB6C25E9FB8E
:100C38006E35EAFB6E450796A8FB0976E8FB6A065F
:100C4800E9FB6A16E9FB6C26EAFB6C36EAFB6E46A2
:100C5800ECFB6E56E8FB69B7E9FB6907E9FB6A1725
:100C6800EAFB6A27EAFB6C37ECFB6C47ECFB6E5738
:100C7800EEFB6E6700BD00BF2DE9F14F87B0FFF7AF
:100C88006FFFDDF81C8008F1200888E8FF00FFBC32
:100C980087E87F08BDE8F08F2DE9F04FB0E8FE0740
:100CA80083B02DE9010790E8005F4FF00A00069035
:100CB8000198DB199CEA030C18EB3C4897EA0807F3
:100CC80013EB375393EA3C4C18EB3C6898EA3757D8
:100CD80024189EEA040E19EB3E4990EA090014EB29
:100CE800305494EA3E4E19EB3E6999EA3050CDE90A
:100CF8000489DDE9028949199AEA010A18EB3A4898
:100D080095EA080511EB355191EA3A4A18EB3A6829
:100D180098EA355592199BEA020B19EB3B4996EA7A
:100D2800090612EB365292EA3B4B19EB3B6999EAFA
:100D3800365613EB706393EA3B6B18EB3B4898EA23
:100D4800706013EB305393EA3B4B5FEA3B6B18EB55
:100D58000B0898EA30505FEA706014EB756494EA07
:100D68003C6C19EB3C4999EA756514EB355494EAE7
:100D78003C4C5FEA3C6C19EB0C0999EA35555FEA83
:100D88007565CDE90289DDE9048911EB766191EA9F
:100D98003E6E18EB3E4898EA766611EB365191EABA
:100DA8003E4E5FEA3E6E18EB0E0898EA36565FEA4A
:100DB800766612EB776292EA3A6A19EB3A4999EA4F
:100DC800776712EB375292EA3A4A5FEA3A6A19EBC6
:100DD8000A0999EA37575FEA776701900698013858
:100DE8007FF465AF01BC80E8005FBDE8000700E95B
:100DF800FE0703B0BDE8F08F30B44FF0000310F8E1
:100E0800014B11F8015B013A84EA050443EA040343
:100E1800F5D1A3F101034FEAD37030BC704700BF8E
:100E28004FF0000310F8012B013943EA0203F9D10E
:100E3800A3F101034FEAD370704700BF30B411F833
:100E4800014B12F8015B6C4000F8014B013BF6D1F5
:100E580030BC70472DE9F00791E8F807B2E80210B6
:100E68005B1854EB0C04B2E802104D4156EB0C062B
:100E7800B2E802104F4158EB0C08B2E8021059EBE7
:100E880001095AEB0C0A8941B3F1FF3374F1FF34BD
:100E980075F1FF3576F1000677F1000778F1000863
:100EA80079F101097AF1FF3A51F100015B184C41DF
:100EB8004D4156F1000657F1000758F1000859EB6B
:100EC800D1795AEB010A80E8F807BDE8F0077047C6
:100ED8002DE9F00791E8F807B2E802105B1A74EB05
:100EE8000C04B2E802108D4176EB0C06B2E8021051
:100EF8008F4178EB0C08B2E8021079EB01097AEB24
:100F08000C0A89415B184C414D4156F1000657F1D6
:100F1800000758F1000859EBD1795AEB010A80E82B
:100F2800F807BDE8F007704718EB040859EB050906
:100F38005AEB060A5BEB070B5FF0000C4CF1000C58
:100F480018EB050859EB06095AEB070A5BEB070B88
:100F580050EB0C005FF0000C51EB0C0152EB0C0253
:100F680063414CF1000CB8EB070879F100097AF1FC
:100F7800000A7BEB040BA841B141A241B3416CF1DB
:100F8800000CBBEB050BB041B941AA41BB416CF168
:100F9800000C4CF001068CF0020718EB060859EB20
:100FA8006C095AEB6C0A7BEB6C0B70EB6C0471EB05
:100FB8006C0572EB670653EB6C076CEB6C0C18EB6B
:100FC8000C0059EB0C015AEB0C025BF1000354F1D5
:100FD800000455F1000556EBDC7657EB0C0770471B
:100FE8002DE9F14F87B0FFF7FFFCDDF81080DDF841
:100FF8001490DDF818A0FFF797FFBDE8000FFFF782
:1010080093FF03B05DF8048B88E8FF00BDE8F08F1C
:101018002DE9F14F87B0FFF7A3FDDDF81080DDF86B
:101028001490DDF818A0FFF77FFFBDE8000FFFF769
:101038007BFF03B05DF8048B88E8FF00BDE8F08F04
:101048002DE9F14FF8C892E8005E19EB03095AEB55
:10105800040A5BEB050B5CEB060C4EEB070E91E804
:10106800E001A9FB0502AAFB0543E9FB6624EAFBAC
:101078006634A9FB0765E9FB6845B1E80003EBFBAB
:101088006836ECFB6846EEFB6856ABFB0987ECFB61
:101098006957EEFB696791E80202EAFB6148EBFBDE
:1010A8006158ECFB6168EEFB61784FF00001EAFBE8
:1010B8000951EBFB6961ECFB6971EEFB69814FF447
:1010C800A03C4FEA154949EA06495FF0000AE9FBE6
:1010D8000C0A4FEA164646EA0746E6FB6C2A4FEA30
:1010E800174747EA0847E7FB6C3A4FEA184848EAC7
:1010F8000148E8FB6C4AADB25544AF0805F003055A
:1011080007EB8707C01952F1000153F1000254F1AF
:10111800000345F1000420BC1FC5BDE8F08F00BFE7
:1011280030B490E83C10511D53F1000154F1000116
:1011380055F100014CF100014FEA9101494201F0DB
:101148000501521853F1000354F1000455F100054C
:101158004CF1000C0CF0030C80E83C1030BC7047DC
:101168002DE9F04F90E8F00F00F140004FF0040E29
:1011780059E0F0B4826BC36B0468052524268759AF
:101188003C444FEA724787EAF24787EA92273C4491
:1011980042684FEAF21787EAB24787EAD2073C4427
:1011A80040F8044B032D08BF6FF01B0687593A44DB
:1011B8004FEA734787EAF34787EA93273A44436835
:1011C8004FEAF31787EAB34787EAD3073A4440F868
:1011D800042B87593B444FEA744787EAF44787EA68
:1011E80094273B4444684FEAF41787EAB44787EAF0
:1011F800D4073B4440F8043B013DC0D1A0F13C007A
:10120800076A3C444FEA724787EAF24787EA92271F
:101218003C4402684FEAF21787EAB24787EAD207E6
:101228003C44C463F0BC4FF0020288EA781C8CEAA4
:10123800F84C0BEBBC1C8AEA090303EA080383EAAF
:101248000A039C4450F8043B9C4451F8043B9C44DA
:10125800674444EA050B0BEA060B04EA05034BEA6C
:10126800030BE34484EAF42383EA34530BEBB30B14
:1012780087EA771C8CEAF74C0AEBBC1C89EA08035E
:1012880003EA070383EA09039C4450F8043B9C449F
:1012980051F8043B9C4466444BEA040A0AEA050AEE
:1012A8000BEA04034AEA030AE2448BEAFB2383EAD3
:1012B8003B530AEBB30A86EA761C8CEAF64C09EB38
:1012C800BC1C88EA070303EA060383EA08039C4474
:1012D80050F8043B9C4451F8043B9C4465444AEA5A
:1012E8000B0909EA04090AEA0B0349EA0309E1447C
:1012F8008AEAFA2383EA3A5309EBB30985EA751CAB
:101308008CEAF54C08EBBC1C87EA060303EA0503E4
:1013180083EA07039C4450F8043B9C4451F8043B7F
:101328009C44644449EA0A0808EA0B0809EA0A03E3
:1013380048EA0308E04489EAF92383EA395308EBC9
:10134800B30884EA741C8CEAF44C07EBBC1C86EAEC
:10135800050303EA040383EA06039C4450F8043BAC
:101368009C4451F8043B9C44E34448EA090707EAD3
:101378000A0708EA090347EA0307674488EAF823E3
:1013880083EA385307EBB3078BEA7B1C8CEAFB4CE8
:1013980006EBBC1C85EA040303EA0B0383EA050396
:1013A8009C4450F8043B9C4451F8043B9C44E24460
:1013B80047EA080606EA090607EA080346EA0306B2
:1013C800664487EAF72383EA375306EBB3068AEACB
:1013D8007A1C8CEAFA4C05EBBC1C84EA0B0303EA82
:1013E8000A0383EA04039C4450F8043B9C4451F8E4
:1013F800043B9C44E14446EA070505EA080506EA79
:10140800070345EA0305654486EAF62383EA36536B
:1014180005EBB30589EA791C8CEAF94C04EBBC1C92
:101428008BEA0A0303EA090383EA0B039C4450F896
:10143800043B9C4451F8043B9C44E04445EA0604C0
:1014480004EA070405EA060344EA0304644485EA57
:10145800F52383EA355304EBB304013A7FF4E5AE90
:10146800A0F14000BEF1010E7FF483AEA0F1400C64
:101478009CE80F00001949199219DB19ACE80F0014
:101488009CE80F004044494452445B44ACE80F00D8
:10149800BDE8F08F2DE90050ACF1400288B0C3CA16
:1014A800CDE90001B2E80303CDE90201B2E8300C4E
:1014B800CDE90445B2E80350CDE9060184EAD460D9
:1014C80080EA451085EAD56181EA441180EA141062
:1014D80080EA057081EA151181EA04711CEB903CE1
:1014E8004EEB913E1CEB814C4EEB804EDDE9062322
:1014F80082EA0A0083EA0B01204029405040594003
:101508001CEB000C5EEB010E0A980899D0E9004527
:101518001CEB040C5EEB050ED1E900451CEB040C3A
:101528005EEB050E18EB0C0859EB0E09D0E90245E5
:1015380012196B41D1E9024512196B41DDE90445E5
:101548008AEA04008BEA050110EA080011EA090199
:1015580090EA0A0091EA0B0112184B4188EAD86018
:1015680080EA491089EAD96181EA481180EA1810AD
:1015780080EA097081EA191181EA087112EB903248
:1015880043EB913312EB814243EB8043CDE90623D1
:10159800DDE90023DDE9024582EAD22080EA4350F2
:1015A80083EAD32181EA425180EA921080EA83607B
:1015B80081EA931181EA82611CEB107C4EEB117E6B
:1015C8001CEB011C4EEB001E82EA0601324001EAC8
:1015D800040050401CEB000C01EA0C00504083EA68
:1015E80007023B4012EA050159405EEB010E02EA90
:1015F8000E015940DDE90623A4185D41CDE90245F5
:1016080012184B418CEADC2080EA4E508EEADE212B
:1016180081EA4C5180EA9C1080EA8E6081EA9E1132
:1016280081EA8C6112EB107243EB117312EB011219
:1016380043EB0013CDE9062384EAD46080EA451021
:1016480085EAD56181EA441180EA141080EA0570C0
:1016580081EA151181EA04711AEB903A4BEB913B40
:101668001AEB814A4BEB804BDDE9042382EA080040
:1016780083EA090120402940504059401AEB000AEA
:101688005BEB010B0A980899D0E904451AEB040AA8
:101698005BEB050BD1E904451AEB040A5BEB050B80
:1016A80016EB0A0657EB0B07D0E9064512196B41F2
:1016B800D1E9064512196B41DDE9024588EA0400C3
:1016C80089EA05013040394090EA080091EA0901A9
:1016D80012184B4186EAD66080EA471087EAD7613C
:1016E80081EA461180EA161080EA077081EA17112C
:1016F80081EA067112EB903243EB913312EB81428F
:1017080043EB8043CDE90423DDE90623DDE9004509
:1017180082EAD22080EA435083EAD32181EA425107
:1017280080EA921080EA836081EA931181EA8261FB
:101738001AEB107A4BEB117B1AEB011A4BEB001BDF
:1017480082EA0C0112EA0C0201EA040050401AEB8A
:10175800000A01EA0A00504083EA0E0213EA0E0367
:1017680012EA050159405BEB010B02EA0B015940F3
:10177800DDE90423A4185D41CDE9004512184B4169
:101788008AEADA2080EA4B508BEADB2181EA4A5167
:1017980080EA9A1080EA8B6081EA9B1181EA8A616B
:1017A80012EB107243EB117312EB011243EB0013AF
:1017B800CDE9042384EAD46080EA451085EAD5613E
:1017C80081EA441180EA141080EA057081EA151153
:1017D80081EA047118EB903849EB913918EB81488C
:1017E80049EB8049DDE9022382EA060083EA070122
:1017F800204029405040594018EB000859EB010996
:101808000A980899D0E9084518EB040859EB050926
:10181800D1E9084518EB040859EB05091CEB080C3D
:101828005EEB090ED0E90A4512196B41D1E90A4568
:1018380012196B41DDE9004586EA040087EA0501D3
:1018480010EA0C0011EA0E017040794012184B4161
:101858008CEADC6080EA4E108EEADE6181EA4C1187
:1018680080EA1C1080EA0E7081EA1E1181EA0C7170
:1018780012EB903243EB913312EB814243EB8043FE
:10188800CDE90223DDE90423DDE9064582EAD22019
:1018980080EA435083EAD32181EA425180EA9210D8
:1018A80080EA836081EA931181EA826118EB1078FB
:1018B80049EB117918EB011849EB001982EA0A0182
:1018C80012EA0A0201EA0400504018EB000801EA93
:1018D8000800504083EA0B0213EA0B0312EA0501E1
:1018E800594059EB010902EA09015940DDE902238F
:1018F800A4185D41CDE9064512184B4188EAD82065
:1019080080EA495089EAD92181EA485180EA981049
:1019180080EA896081EA991181EA886112EB107284
:1019280043EB117312EB011243EB0013CDE90223D1
:1019380084EAD46080EA451085EAD56181EA4411D9
:1019480080EA141080EA057081EA151181EA0471B1
:1019580016EB903647EB913716EB814647EB8047FD
:10196800DDE9002382EA0C0083EA0E0120402940C9
:101978005040594036184F410A980899D0E90C450B
:1019880036196F41D1E90C4536196F411AEB060A31
:101998005BEB070BD0E90E4512196B41D1E90E45F7
:1019A80012196B41DDE906458CEA04008EEA05014F
:1019B80010EA0A0011EA0B0190EA0C0091EA0E0104
:1019C80012184B418AEADA6080EA4B108BEADB6135
:1019D80081EA4A1180EA1A1080EA0B7081EA1B1129
:1019E80081EA0A7112EB903243EB913312EB814298
:1019F80043EB8043CDE90023DDE90223DDE904451B
:101A080082EAD22080EA435083EAD32181EA425114
:101A180080EA921080EA836081EA931181EA826108
:101A280016EB107647EB117716EB011647EB00170C
:101A380082EA080112EA080201EA04005040361856
:101A480001EA0600504083EA090213EA090312EA90
:101A5800050159404F4102EA07015940DDE90023D9
:101A6800A4185D41CDE9044512184B4186EAD620F9
:101A780080EA475087EAD72181EA465180EA9610E2
:101A880080EA876081EA971181EA866112EB107219
:101A980043EB117312EB011243EB0013CDE9002362
:101AA80084EAD46080EA451085EAD56181EA441168
:101AB80080EA141080EA057081EA151181EA047140
:101AC8001CEB903C4EEB913E1CEB814C4EEB804E58
:101AD800DDE9062382EA0A0083EA0B012040294057
:101AE800504059401CEB000C5EEB010E0A98089917
:101AF800D0E910451CEB040C5EEB050ED1E910454E
:101B08001CEB040C5EEB050E18EB0C0859EB0E09E8
:101B1800D0E9124512196B41D1E9124512196B41EE
:101B2800DDE904458AEA04008BEA050110EA0800A9
:101B380011EA090190EA0A0091EA0B0112184B41D7
:101B480088EAD86080EA491089EAD96181EA4811AF
:101B580080EA181080EA097081EA191181EA08718F
:101B680012EB903243EB913312EB814243EB80430B
:101B7800CDE90623DDE90023DDE9024582EAD2202A
:101B880080EA435083EAD32181EA425180EA9210E5
:101B980080EA836081EA931181EA82611CEB107C00
:101BA8004EEB117E1CEB011C4EEB001E82EA060177
:101BB800324001EA040050401CEB000C01EA0C0022
:101BC800504083EA07023B4012EA050159405EEBA8
:101BD800010E02EA0E015940DDE90623A4185D4111
:101BE800CDE9024512184B418CEADC2080EA4E50C0
:101BF8008EEADE2181EA4C5180EA9C1080EA8E60F0
:101C080081EA9E1181EA8C6112EB107243EB117329
:101C180012EB011243EB0013CDE9062384EAD460EA
:101C280080EA451085EAD56181EA441180EA1410FA
:101C380080EA057081EA151181EA04711AEB903A7D
:101C48004BEB913B1AEB814A4BEB804BDDE90423CC
:101C580082EA080083EA090120402940504059409F
:101C68001AEB000A5BEB010B0A980899D0E91445B6
:101C78001AEB040A5BEB050BD1E914451AEB040ACD
:101C88005BEB050B16EB0A0657EB0B07D0E916457D
:101C980012196B41D1E9164512196B41DDE902456C
:101CA80088EA040089EA05013040394090EA0800D2
:101CB80091EA090112184B4186EAD66080EA47107A
:101CC80087EAD76181EA461180EA161080EA077030
:101CD80081EA171181EA067112EB903243EB9133D6
:101CE80012EB814243EB8043CDE90423DDE906236F
:101CF800DDE9004582EAD22080EA435083EAD32115
:101D080081EA425180EA921080EA836081EA931165
:101D180081EA82611AEB107A4BEB117B1AEB011AFC
:101D28004BEB001B82EA0C0112EA0C0201EA0400E8
:101D380050401AEB000A01EA0A00504083EA0E02FA
:101D480013EA0E0312EA050159405BEB010B02EAA4
:101D58000B015940DDE90423A4185D41CDE9004594
:101D680012184B418AEADA2080EA4B508BEADB21D1
:101D780081EA4A5180EA9A1080EA8B6081EA9B11D5
:101D880081EA8A6112EB107243EB117312EB0112B4
:101D980043EB0013CDE9042384EAD46080EA4510BC
:101DA80085EAD56181EA441180EA141080EA057059
:101DB80081EA151181EA047118EB903849EB9139E1
:101DC80018EB814849EB8049DDE9022382EA0600E5
:101DD80083EA0701204029405040594018EB000889
:101DE80059EB01090A980899D0E9184518EB040835
:101DF80059EB0509D1E9184518EB040859EB050911
:101E08001CEB080C5EEB090ED0E91A4512196B4160
:101E1800D1E91A4512196B41DDE9004586EA04004B
:101E280087EA050110EA0C0011EA0E0170407940BA
:101E380012184B418CEADC6080EA4E108EEADE61B3
:101E480081EA4C1180EA1C1080EA0E7081EA1E11AA
:101E580081EA0C7112EB903243EB913312EB814221
:101E680043EB8043CDE90223DDE90423DDE90645A0
:101E780082EAD22080EA435083EAD32181EA4251A0
:101E880080EA921080EA836081EA931181EA826194
:101E980018EB107849EB117918EB011849EB001988
:101EA80082EA0A0112EA0A0201EA0400504018EB29
:101EB800000801EA0800504083EA0B0213EA0B030A
:101EC80012EA0501594059EB010902EA0901594092
:101ED800DDE90223A4185D41CDE9064512184B41FE
:101EE80088EAD82080EA495089EAD92181EA48510C
:101EF80080EA981080EA896081EA991181EA88610C
:101F080012EB107243EB117312EB011243EB001347
:101F1800CDE9022384EAD46080EA451085EAD561D8
:101F280081EA441180EA141080EA057081EA1511EB
:101F380081EA047116EB903647EB913716EB814630
:101F480047EB8047DDE9002382EA0C0083EA0E01B3
:101F5800204029405040594036184F410A98089966
:101F6800D0E91C4536196F41D1E91C4536196F4136
:101F78001AEB060A5BEB070BD0E91E4512196B41F9
:101F8800D1E91E4512196B41DDE906458CEA0400CA
:101F98008EEA050110EA0A0011EA0B0190EA0C002A
:101FA80091EA0E0112184B418AEADA6080EA4B1076
:101FB8008BEADB6181EA4A1180EA1A1080EA0B7029
:101FC80081EA1B1181EA0A7112EB903243EB9133DB
:101FD80012EB814243EB8043CDE90023DDE9022384
:101FE800DDE9044582EAD22080EA435083EAD3211E
:101FF80081EA425180EA921080EA836081EA931173
:1020080081EA826116EB107647EB117716EB011621
:1020180047EB001782EA080112EA080201EA040005
:102028005040361801EA0600504083EA090213EAD4
:10203800090312EA050159404F4102EA07015940D4
:10204800DDE90023A4185D41CDE9044512184B4190
:1020580086EAD62080EA475087EAD72181EA4651A6
:1020680080EA961080EA876081EA971181EA8661A2
:1020780012EB107243EB117312EB011243EB0013D6
:10208800CDE900230A9880300A90089AA2F140020C
:102098001BBCC3C2A2E818031BBCA2E8030CA2E83D
:1020A8001850BDE8009000BF00B59CE8F00FDCE9CF
:1020B8001201DCE91C23241845EB01054FEA560EF2
:1020C8008EEAC77E8EEA162E8EEA076E8EEAD61E36
:1020D8008EEA476E14EB0E044FEA570E8EEAC67E60
:1020E8008EEA172E8EEA066E8EEAD71E45EB0E058F
:1020F8004FEAD24E8EEA433E8EEAC20E8EEA537EF5
:102108008EEA921E8EEA836E14EB0E044FEAD34ECB
:102118008EEA423E8EEAC30E8EEA527E8EEA931E05
:1021280045EB0E05DCE91401DCE91E23361847EB04
:1021380001074FEA580E8EEAC97E8EEA182E8EEAFB
:10214800096E8EEAD81E8EEA496E16EB0E064FEA25
:10215800590E8EEAC87E8EEA192E8EEA086E8EEA2D
:10216800D91E47EB0E074FEAD24E8EEA433E8EEA5F
:10217800C20E8EEA537E8EEA921E8EEA836E16EBAC
:102188000E064FEAD34E8EEA423E8EEAC30E8EEA20
:10219800527E8EEA931E47EB0E07DCE9160118EB18
:1021A800000849EB01094FEA5A0E8EEACB7E8EEA07
:1021B8001A2E8EEA0B6E8EEADA1E8EEA4B6E18EB3A
:1021C8000E084FEA5B0E8EEACA7E8EEA1B2E8EEA56
:1021D8000A6E8EEADB1E49EB0E094FEAD44E8EEAF0
:1021E800453E8EEAC40E8EEA557E8EEA941E8EEA2D
:1021F800856E18EB0E084FEAD54E8EEA443E8EEAFD
:10220800C50E8EEA547E8EEA951E49EB0E09DCE96E
:102218001801DCE908231AEB000A4BEB010B4FEA23
:10222800520E8EEAC37E8EEA122E8EEA036E8EEA74
:10223800D21E8EEA436E1AEB0E0A4FEA530E8EEA4E
:10224800C27E8EEA132E8EEA026E8EEAD31E4BEB06
:102258000E0B4FEAD64E8EEA473E8EEAC60E8EEA3F
:10226800577E8EEA961E8EEA876E1AEB0E0A4FEAA2
:10227800D74E8EEA463E8EEAC70E8EEA567E8EEA24
:10228800971E4BEB0E0BACE8F00FDCE91201DCE912
:102298000267121843EB01034FEA560E8EEAC77E17
:1022A8008EEA162E8EEA076E8EEAD61E8EEA476EE4
:1022B80012EB0E024FEA570E8EEAC67E8EEA172EF2
:1022C8008EEA066E8EEAD71E43EB0E034FEAD84E0F
:1022D8008EEA493E8EEAC80E8EEA597E8EEA981E2C
:1022E8008EEA896E12EB0E024FEAD94E8EEA483E0C
:1022F8008EEAC90E8EEA587E8EEA991E43EB0E03CB
:10230800DCE91401DCE90489361847EB01074FEAD8
:10231800580E8EEAC97E8EEA182E8EEA096E8EEA6B
:10232800D81E8EEA496E16EB0E064FEA590E8EEA53
:10233800C87E8EEA192E8EEA086E8EEAD91E47EB01
:102348000E074FEADA4E8EEA4B3E8EEACA0E8EEA46
:102358005B7E8EEA9A1E8EEA8B6E16EB0E064FEAAD
:10236800DB4E8EEA4A3E8EEACB0E8EEA5A7E8EEA23
:102378009B1E47EB0E07DCE91601DCE906AB18EB00
:10238800000849EB01094FEA5A0E8EEACB7E8EEA25
:102398001A2E8EEA0B6E8EEADA1E8EEA4B6E18EB58
:1023A8000E084FEA5B0E8EEACA7E8EEA1B2E8EEA74
:1023B8000A6E8EEADB1E49EB0E094FEAD24E8EEA10
:1023C800433E8EEAC20E8EEA537E8EEA921E8EEA53
:1023D800836E18EB0E084FEAD34E8EEA423E8EEA21
:1023E800C30E8EEA527E8EEA931E49EB0E09DCE993
:1023F80008011AEB040A4BEB050B4FEA500E8EEA64
:10240800C17E8EEA102E8EEA016E8EEAD01E8EEA0A
:10241800416E1AEB0E0A4FEA510E8EEAC07E8EEA22
:10242800112E8EEA006E8EEAD11E4BEB0E0B4FEA90
:10243800D64E8EEA473E8EEAC60E8EEA577E8EEA62
:10244800961E8EEA876E1AEB0E0A4FEAD74E8EEA70
:10245800463E8EEAC70E8EEA567E8EEA971E4BEBF4
:102468000E0BACE8CC0F5CE90E45DCE902670019FD
:1024780041EB05014FEA560E8EEAC77E8EEA162E0C
:102488008EEA076E8EEAD61E8EEA476E10EB0E00B5
:102498004FEA570E8EEAC67E8EEA172E8EEA066E31
:1024A8008EEAD71E41EB0E014FEAD84E8EEA493E1E
:1024B8008EEAC80E8EEA597E8EEA981E8EEA896EDA
:1024C80010EB0E004FEAD94E8EEA483E8EEAC90E4E
:1024D8008EEA587E8EEA991E41EB0E015CE90C45A6
:1024E800DCE90489361947EB05074FEA580E8EEAEE
:1024F800C97E8EEA182E8EEA096E8EEAD81E8EEAFA
:10250800496E16EB0E064FEA590E8EEAC87E8EEA21
:10251800192E8EEA086E8EEAD91E47EB0E074FEA8F
:10252800DA4E8EEA4B3E8EEACA0E8EEA5B7E8EEA61
:102538009A1E8EEA8B6E16EB0E064FEADB4E8EEA7B
:102548004A3E8EEACB0E8EEA5A7E8EEA9B1E47EBF7
:102558000E075CE90A45DCE906AB18EB040849EB11
:1025680005094FEA5A0E8EEACB7E8EEA1A2E8EEABB
:102578000B6E8EEADA1E8EEA4B6E18EB0E084FEAE7
:102588005B0E8EEACA7E8EEA1B2E8EEA0A6E8EEAF1
:10259800DB1E49EB0E094FEAD04E8EEA413E8EEA29
:1025A800C00E8EEA517E8EEA901E8EEA816E18EB7E
:1025B8000E084FEAD14E8EEA403E8EEAC10E8EEAF0
:1025C800507E8EEA911E49EB0E09DCE908451AEBAC
:1025D800020A4BEB030B4FEA540E8EEAC57E8EEAD5
:1025E800142E8EEA056E8EEAD41E8EEA456E1AEB1C
:1025F8000E0A4FEA550E8EEAC47E8EEA152E8EEA32
:10260800046E8EEAD51E4BEB0E0B4FEAD64E8EEAC1
:10261800473E8EEAC60E8EEA577E8EEA961E8EEAF0
:10262800876E1AEB0E0A4FEAD74E8EEA463E8EEABE
:10263800C70E8EEA567E8EEA971E4BEB0E0BACE861
:10264800C30F5CE90E23DCE90267A41845EB030518
:102658004FEA560E8EEAC77E8EEA162E8EEA076E6F
:102668008EEAD61E8EEA476E14EB0E044FEA570E1A
:102678008EEAC67E8EEA172E8EEA066E8EEAD71E80
:1026880045EB0E054FEAD84E8EEA493E8EEAC80E53
:102698008EEA597E8EEA981E8EEA896E14EB0E0435
:1026A8004FEAD94E8EEA483E8EEAC90E8EEA587E27
:1026B8008EEA991E45EB0E055CE90C23DCE90489DA
:1026C800B61847EB03074FEA580E8EEAC97E8EEA22
:1026D800182E8EEA096E8EEAD81E8EEA496E16EB1F
:1026E8000E064FEA590E8EEAC87E8EEA192E8EEA39
:1026F800086E8EEAD91E47EB0E074FEADA4E8EEACD
:102708004B3E8EEACA0E8EEA5B7E8EEA9A1E8EEAEF
:102718008B6E16EB0E064FEADB4E8EEA4A3E8EEAC9
:10272800CB0E8EEA5A7E8EEA9B1E47EB0E075CE9BB
:102738000A23DCE906AB18EB020849EB03094FEA68
:102748005A0E8EEACB7E8EEA1A2E8EEA0B6E8EEA2F
:10275800DA1E8EEA4B6E18EB0E084FEA5B0E8EEA15
:10276800CA7E8EEA1B2E8EEA0A6E8EEADB1E49EBC3
:102778000E094FEAD44E8EEA453E8EEAC40E8EEA22
:10278800557E8EEA941E8EEA856E18EB0E084FEA87
:10279800D54E8EEA443E8EEAC50E8EEA547E8EEA07
:1027A800951E49EB0E095CE918231AEB000A4BEB5E
:1027B800010B4FEA520E8EEAC37E8EEA122E8EEA83
:1027C800036E8EEAD21E8EEA436E1AEB0E0A4FEAA9
:1027D800530E8EEAC27E8EEA132E8EEA026E8EEABF
:1027E800D31E4BEB0E0B4FEAD64E8EEA473E8EEACF
:1027F800C60E8EEA577E8EEA961E8EEA876E1AEB12
:102808000E0A4FEAD74E8EEA463E8EEAC70E8EEA89
:10281800567E8EEA971E4BEB0E0B8CE8F00FACF150
:10282800600C00BD2DE9F24F00F1400CB0E8F8074C
:10283800ACE8F807B0E8F807ACE8F807FEF72AFEB6
:10284800FFF732FCFEF726FEFFF72EFCFEF722FE0E
:10285800FFF72AFCFEF71EFEFFF726FCFEF71AFE1E
:10286800ACF1800808F1400998E80F0CB9E8F0507D
:102878000019694192197B411AEB0C0A4BEB0E0BBC
:10288800A8E80F0C98E80F0CB9E8F0500019694156
:1028980092197B411AEB0C0A4BEB0E0BA8E80F0CB4
:1028A80098E80F0099E8F0000019694192197B41F6
:1028B80088E80F00BDE8F88F844641EA000313F06A
:1028C800030349D1403A23D30B6803604B68436044
:1028D8008B688360CB68C3600B6903614B69436194
:1028E8008B698361CB69C3610B6A03624B6A43627C
:1028F8008B6A8362CB6AC3620B6B03634B6B436364
:102908008B6B8363CB6BC36340304031403ADBD27F
:1029180030320BD30B6803604B6843608B6883606D
:10292800CB68C36010301031103AF3D20C3205D3A3
:1029380051F8043B40F8043B043AF9D2043208D079
:10294800D2071CBF11F8013B00F8013B01D30B88EB
:1029580003806046704700BF082A13D38B07B1D0A5
:1029680010F00303AED0C3F10403D21ADB071CBF77
:1029780011F8013B00F8013BA4D331F8023B20F8E1
:10298800023B9FE7043AD9D3013A11F8013B00F81A
:10299800013BF9D20B7803704B7843708B788370C6
:1029A8006046704780EA010C1CF0030F37D110F025
:1029B800030C20F0030021F0030150F8042B08BF9A
:1029C80051F8043B0ED08CF0030C6FF07F434FEAB4
:1029D800CC0C23FA0CFC51F8043B42EA0C0243EA03
:1029E8000C0300BFA2F1013C9A4201BF2CEA020C81
:1029F8001CF0803F50F8042B51F8043BF2D04FEA0A
:102A080002604FEA1222012828BFB0EB036F08BF0B
:102A18001B0AF4D003F0FF03000EC01A704710F031
:102A2800030F0AD010F8012B11F8013B012A28BF27
:102A38009A42F4D0A2EB030070474DF8045D50F8B9
:102A4800042B01F0030521F0030151F8043B022D8A
:102A580026D04DD822F07F45B5EB132FA2F1013CCB
:102A68002CEA020C0DD11CF0803C08BF51F8043B45
:102A78000AD185EA0205B5EB036F0CD150F8042B97
:102A8800E8E74FEA13235BE03CF07F4C54D10B7826
:102A98004FEA126554E04FEA126503F0FF034FE076
:102AA8004FEA0245A2F1013C4FEA15452CEA020C17
:102AB800B5EB134F18D11CF0803C08BF51F8043B0C
:102AC80007D185EA0205B5EB034F09D150F8042B6D
:102AD800E6E75FEA0C4C2FD10B884FEA12452FE04E
:102AE8004FEA03434FEA12454FEA134328E000BF79
:102AF80002F0FF05B5EB136FA2F1013C2CEA020CC2
:102B08000DD11CF0803C08BF51F8043B0AD185EA7E
:102B18000205B5EB032F0AD150F8042BE8E74FEA7A
:102B280013630DE012F0FF0F06D051F8043B4FEA93
:102B3800122523F07F4303E04FF0000020BC7047CC
:102B480005F0FF0203F0FF00012828BF904204BFF0
:102B58002D0A1B0AF4D0A2EB000020BC704700BF6E
:102B680081F0004102E000BF83F0004330B54FEA36
:102B780041044FEA430594EA050F08BF90EA020FA3
:102B88001FBF54EA000C55EA020C7FEA645C7FEA36
:102B9800655C00F0E2804FEA5454D4EB5555B8BF59
:102BA8006D420CDD2C4480EA020281EA030382EACA
:102BB800000083EA010180EA020281EA0303362D5C
:102BC80088BF30BD11F0004F4FEA01314FF4801C2F
:102BD8004CEA113102D0404261EB410113F0004F41
:102BE8004FEA03334CEA133302D0524263EB4303F8
:102BF80094EA050F00F0A780A4F10104D5F1200E96
:102C08000DDB02FA0EFC22FA05F2801841F10001F0
:102C180003FA0EF2801843FA05F359410EE0A5F1C4
:102C280020050EF1200E012A03FA0EFC28BF4CF0F5
:102C3800020C43FA05F3C01851EBE37101F00045AB
:102C480007D54FF0000EDCF1000C7EEB00006EEBB8
:102C58000101B1F5801F1BD3B1F5001F0CD3490842
:102C68005FEA30004FEA3C0C04F101044FEA445299
:102C780012F5800F80F09A80BCF1004F08BF5FEA20
:102C8800500C50F1000041EB045141EA050130BD00
:102C98005FEA4C0C404141EB0101013C28BFB1F512
:102CA800801FE9D291F0000F04BF01460020B1FA5D
:102CB80081F308BF2033A3F10B03B3F120020CDA30
:102CC8000C3208DD02F1140CC2F10C0201FA0CF00E
:102CD80021FA02F10CE002F11402D8BFC2F1200C73
:102CE80001FA02F120FA0CFCDCBF41EA0C01904029
:102CF800E41AA2BF01EB0451294330BD6FEA040472
:102D08001F3C1CDA0C340EDC04F11404C4F120025C
:102D180020FA04F001FA02F340EA030021FA04F36E
:102D280045EA030130BDC4F10C04C4F1200220FAC5
:102D380002F001FA04F340EA0300294630BD21FA03
:102D480004F0294630BD94F0000F83F4801306BFC9
:102D580081F480110134013D4EE77FEA645C18BFBD
:102D68007FEA655C29D094EA050F08BF90EA020F54
:102D780005D054EA000C04BF1946104630BD91EA4C
:102D8800030F1EBF0021002030BD5FEA545C05D14F
:102D98004000494128BF41F0004130BD14F580048E
:102DA8003CBF01F5801130BD01F0004545F0FE4102
:102DB80041F470014FF0000030BD7FEA645C1ABF37
:102DC800194610467FEA655C1CBF0B46024650EA6E
:102DD800013406BF52EA033591EA030F41F400219A
:102DE80030BD00BF90F0000F04BF0021704730B520
:102DF8004FF4806404F132044FF000054FF00001F5
:102E080050E700BF90F0000F04BF0021704730B5B5
:102E18004FF4806404F1320410F0004548BF40428A
:102E28004FF000013EE700BF42004FEAE2014FEADF
:102E380031014FEA02701FBF12F07F4393F07F4FBA
:102E480081F06051704732F07F4208BF704793F0BD
:102E58007F4F04BF41F40021704730B54FF46074D0
:102E680001F0004521F000411CE700BF50EA0102D3
:102E780008BF704730B54FF000050AE050EA01027C
:102E880008BF704730B511F0004502D5404261EBEC
:102E980041014FF4806404F132045FEA915C3FF42D
:102EA800D8AE4FF003025FEADC0C18BF03325FEACA
:102EB800DC0C18BF033202EBDC02C2F1200300FA7B
:102EC80003FC20FA02F001FA03FE40EA0E0021FAA0
:102ED80002F11444BDE600BF70B54FF0FF0C4CF48E
:102EE800E06C1CEA11541DBF1CEA135594EA0C0F40
:102EF80095EA0C0F00F0DEF82C4481EA030621EA7B
:102F08004C5123EA4C5350EA013518BF52EA0335B5
:102F180041F4801143F4801338D0A0FB02CE4FF067
:102F28000005E1FB02E506F00042E0FB03E54FF097
:102F38000006E1FB03569CF0000F18BF4EF0010E8F
:102F4800A4F1FF04B6F5007F64F5407404D25FEA8B
:102F58004E0E6D4146EB060642EAC62141EA55513E
:102F68004FEAC52040EA5E504FEACE2EB4F1FD0C80
:102F780088BFBCF5E06F1ED8BEF1004F08BF5FEAFE
:102F8800500E50F1000041EB045170BD06F00046B0
:102F980046EA010140EA020081EA0301B4EB5C045D
:102FA800C2BFD4EB0C0541EA045170BD41F4801155
:102FB8004FF0000E013C00F3AB8014F1360FDEBF7A
:102FC800002001F0004170BDC4F10004203C35DA56
:102FD8000C341BDC04F11404C4F1200500FA05F3D9
:102FE80020FA04F001FA05F240EA020001F000427A
:102FF80021F0004110EBD37021FA04F642EB0601F0
:103008005EEA430E08BF20EAD37070BDC4F10C0419
:10301800C4F1200500FA04F320FA05F001FA04F2DD
:1030280040EA020001F0004110EBD37041F10001C9
:103038005EEA430E08BF20EAD37070BDC4F12005D4
:1030480000FA05F24EEA020E20FA04F301FA05F23C
:1030580043EA020321FA04F001F0004121FA04F2E4
:1030680020EA020000EBD3705EEA430E08BF20EAB4
:10307800D37070BD94F0000F0FD101F000464000EE
:1030880041EB010111F4801F08BF013CF7D041EA70
:10309800060195F0000F18BF704703F00046520074
:1030A80043EB030313F4801F08BF013DF7D043EA45
:1030B8000603704794EA0C0F0CEA135518BF95EAFB
:1030C8000C0F0CD050EA410618BF52EA4306D1D182
:1030D80081EA030101F000414FF0000070BD50EAA1
:1030E800410606BF1046194652EA430619D094EA2B
:1030F8000C0F02D150EA013613D195EA0C0F05D115
:1031080052EA03361CBF104619460AD181EA030168
:1031180001F0004141F0FE4141F470014FF0000020
:1031280070BD41F0FE4141F4780170BD70B54FF0BB
:10313800FF0C4CF4E06C1CEA11541DBF1CEA13553B
:1031480094EA0C0F95EA0C0F00F0A7F8A4EB05041D
:1031580081EA030E52EA03354FEA013100F0888014
:103168004FEA03334FF0805545EA131343EA1263DD
:103178004FEA022245EA111545EA10654FEA002692
:103188000EF000419D4208BF964244F1FD0404F54B
:10319800407402D25B084FEA3202B61A65EB0305A7
:1031A8005B084FEA32024FF480104FF4002CB6EB64
:1031B800020E75EB030E22BFB61A754640EA0C00E4
:1031C8005B084FEA3202B6EB020E75EB030E22BF24
:1031D800B61A754640EA5C005B084FEA3202B6EB65
:1031E800020E75EB030E22BFB61A754640EA9C0024
:1031F8005B084FEA3202B6EB020E75EB030E22BFF4
:10320800B61A754640EADC0055EA060E18D04FEAB1
:10321800051545EA16754FEA06164FEAC30343EA51
:1032280052734FEAC2025FEA1C1CC0D111F4801F1E
:103238000BD141EA00014FF000004FF0004CB6E717
:1032480011F4801F04BF01430020B4F1FD0C88BFB6
:10325800BCF5E06F3FF6AFAEB5EB030C04BFB6EBC1
:10326800020C5FEA500C50F1000041EB045170BDB4
:103278000EF0004E4EEA113114EB5C04C2BFD4EBE1
:103288000C0541EA045170BD41F480114FF0000E65
:10329800013C90E645EA060E8DE60CEA135594EAE1
:1032A8000C0F08BF95EA0C0F3FF43BAF94EA0C0FE4
:1032B8000AD150EA01347FF434AF95EA0C0F7FF459
:1032C80025AF104619462CE795EA0C0F06D152EAAD
:1032D80003353FF4FDAE1046194622E750EA410691
:1032E80018BF52EA43067FF4C5AE50EA41047FF4A2
:1032F8000DAF52EA43057FF4EBAE12E74FF0FF3C07
:1033080006E000BF4FF0010C02E000BF4FF0010CD7
:103318004DF804CD4FEA410C7FEA6C5C4FEA430C50
:1033280018BF7FEA6C5C1BD001B050EA410C0CBF9F
:1033380052EA430C91EA030F02BF90EA020F002001
:10334800704710F1000F91EA030F58BF994208BF68
:1033580090422CBFD8176FEAE37040F00100704725
:103368004FEA410C7FEA6C5C02D150EA013C07D17C
:103378004FEA430C7FEA6C5CD6D152EA033CD3D0C7
:103388005DF8040B704700BF8446104662468C46C1
:103398001946634600E000BF01B5FFF7B7FF0028F4
:1033A80048BF10F1000F01BD4DF808EDFFF7F4FF1D
:1033B8000CBF012000205DF808FB00BF4DF808EDA8
:1033C800FFF7EAFF34BF012000205DF808FB00BFCB
:1033D8004DF808EDFFF7E0FF94BF012000205DF8ED
:1033E80008FB00BF4DF808EDFFF7CEFF94BF0120A2
:1033F80000205DF808FB00BF4DF808EDFFF7C4FF9B
:1034080034BF012000205DF808FB00BF4FEA410CE3
:103418007FEA6C5C02D150EA013C0AD14FEA430CC6
:103428007FEA6C5C02D152EA033C02D14FF0000003
:1034380070474FF0010070474FEA410212F5001241
:1034480015D211D56FF47873B3EB625212D94FEAE3
:10345800C12343F0004343EA505311F0004F23FACD
:1034680002F018BF404270474FF00000704750EA22
:10347800013005D111F0004008BF6FF000407047DF
:103488004FF00000704700BF4A0011D212F5001239
:1034980011D20DD56FF47873B3EB62520ED44FEAA4
:1034A800C12343F0004343EA505323FA02F0704724
:1034B8004FF00000704750EA013002D14FF0FF3062
:1034C80070474FF0000070474FEA4102B2F1E04305
:1034D80024BFB3F5001CDCF1FE5C0DD901F0004CF3
:1034E8004FEAC0024CEA5070B2F1004F40EB830043
:1034F80008BF20F00100704711F0804F21D113F16F
:103508003872BCBF01F00040704741F480114FEAA7
:103518005252C2F11802C2F1200C10FA0CF320FA30
:1035280002F018BF40F001004FEAC1234FEAD3234D
:1035380003FA0CFC40EA0C0023FA02F34FEA4303B7
:10354800CCE77FEA625307D150EA01331EBF4FF040
:10355800FE4040F44000704701F0004040F0FE405B
:1035680040F40000704700BF7BB972B90029BEBFA4
:1035780000204FF0004106E008BF00281CBF6FF094
:1035880000414FF0FF3000F075B8ADF1080C6DE95F
:1035980004CE002909DB002B1ADB00F084F8DDF8E3
:1035A80004E0DDE9022304B07047404261EB4101C9
:1035B800002B1BDB00F077F8DDF804E0DDE90223DF
:1035C80004B0404261EB4101524263EB4303704750
:1035D800524263EB430300F066F8DDF804E0DDE9EE
:1035E800022304B0404261EB41017047524263EB51
:1035F800430300F058F8DDF804E0DDE9022304B0E5
:10360800524263EB4303704753B94AB9002908BFD4
:1036180000281CBF4FF0FF314FF0FF3000F02AB8F0
:10362800ADF1080C6DE904CE00F03DF8DDF804E0DA
:10363800DDE9022304B07047D0B500220B4B0646E3
:103648000F46FFF749FCFFF71FFF0446FFF7CAFBC9
:103658000022074BFFF740FC02460B46304639462E
:10366800FFF782FAFFF710FF2146D0BD0000F03DBA
:103678000000F041704700BF38B50022002304461F
:103688000D46FFF79BFE28B920462946BDE838407D
:10369800FFF7D2BF204605F10041FFF7CDFF4042BA
:1036A80061EB410138BD2DE9F04786468C46084656
:1036B800089E154674461946002B40F0C180854285
:1036C800B2FA82F245D94AB1C2F1200300FA02FCEB
:1036D800954094402EFA03F343EA0C0C4FEA154E3A
:1036E800A8B2230CBCFBFEF80EFB18CC08FB00F9B3
:1036F80043EA0C43994528D9EB1808F1FF3704D25F
:10370800994502D9A8F102072B44A3EB0903A4B2F7
:10371800B3FBFEFC0EFB1C330CFB00F044EA034435
:10372800A04214D92C190CF1FF3304D2A04202D9BB
:10373800ACF102032C44241A43EA07401EB1D440DA
:10374800002334607360BDE8F0874746DDE76346D1
:10375800F1E792BB431B01214FEA154EAFB2200C93
:10376800B3FBFEFC0EFB1C330CFB07F840EA0343DB
:10377800984561D9EB180CF1FF3004D2984502D96D
:10378800ACF102002B44A3EB0803A4B2B3FBFEFC8C
:103798000EFB1C330CFB07F744EA0344A7424DD940
:1037A8002C190CF1FF3304D2A74202D9ACF1020361
:1037B8002C44E41B43EA0040C0E7C2F120039540D3
:1037C800944020FA03F12EFA03F34FEA154E904085
:1037D800AFB20343B1FBFEFC0EFB1C10190C0CFB33
:1037E80007F841EA0041884522D969180CF1FF30F1
:1037F80004D2884502D9ACF102002944A1EB0801A2
:103808009BB2B1FBFEFC0EFB1C110CFB07F743EA55
:1038180001439F420ED9EB180CF1FF3104D29F42AD
:1038280002D9ACF102012B44DB1B41EA004193E7CA
:103838006046E3E76146F7E76046A4E76346B8E712
:10384800834206D916B9002108467CE7C6E900E09C
:10385800F9E7B3FA83F78FB9834201D3724508D8E1
:10386800BEEB020460EB030301209C461EB9002155
:1038780069E73846FAE7C6E9004CF8E7C7F1200CD3
:10388800BB400EFA07F522FA0CF42EFA0CF1BA40F6
:103898001C4320FA0CF3B8404FEA144901431FFABD
:1038A80084FEB3FBF9F809FB18300B0C08FB0EFA81
:1038B80043EA00439A4540D9E31808F1FF3004D29F
:1038C8009A4502D9A8F102002344A3EB0A0389B25E
:1038D800B3FBF9F809FB183308FB0EFE41EA034174
:1038E8008E452CD9611808F1FF3304D28E4502D9D0
:1038F800A8F10203214443EA0040A1EB0E01A0FB1A
:1039080002984145CE46434602D306D14D4504D2DE
:103918000138B9EB020E68EB0403002EA7D0B5EB13
:103928000E0261EB030101FA0CFC22FA07F3F940DD
:103938004CEA0303C6E9003199E74046C5E7434628
:10394800D9E70000000000002DE9F04F91B076485B
:1039580065F0A7F8002800F0DB800FF2C419D9E958
:103968000089714DAC684021E3686F48984703218E
:10397800236904AA6C489847072123690AAA6A4858
:1039880098470598FFF73EFA42464B46FFF7CEFBAD
:10399800064604980F46FFF735FA02460B463046AE
:1039A8003946FFF7E3F802460B46604CCDE90001C3
:1039B800C4E906230798FFF725FA42464B46FFF766
:1039C800B5FB064606980F46FFF71CFA02460B465B
:1039D80030463946FFF7CAF802460B46CDE90201E0
:1039E800C4E908230998FFF70DFA42464B46FFF74A
:1039F8009DFB064608980F46FFF704FA02460B4659
:103A080030463946FFF7B2F8DDE9002382468B4697
:103A180010461946C4E90AABFFF75EFADDE902234E
:103A280006460F4610461946FFF756FA02460B4659
:103A380030463946FFF79AF8524606460F465B4627
:103A480050465946FFF748FA02460B463046394673
:103A5800FFF78CF850F072FDFFF736FDA0640B9865
:103A6800FFF7D0F942464B46FFF760FB06460A9837
:103A78000F46FFF7C7F902460B4630463946FFF7AF
:103A880075F8C4E90C010D98FFF7BCF942464B469E
:103A9800FFF74CFB06460C980F46FFF7B3F90246B2
:103AA8000B4630463946FFF761F8C4E90E010F9816
:103AB800FFF7A8F942464B46FFF738FB06460E9833
:103AC8000F46FFF79FF902460B4630463946FFF787
:103AD8004DF8C4E910014FF0FF324FF0FF3314489E
:103AE80036F0FAFDD4E906231249C1E90623D4E9E0
:103AF8000823C1E90823D4E90A23C1E90A230C48A9
:103B080036F062FE002140F2676065F0DBFB29E7D2
:103B1800094811B0BDE8F04F51F040BAAFF300804A
:103B28000000000080842E4134DB06007015002060
:103B3800DC32002028160020D42F070000000000E7
:103B48002DE9F04F054687B0214F0021BB68384664
:103B5800029304AA5B689847002832DBDDE9044B2E
:103B68001C4B4FF0FF3AA4FB031203FB0B2816A3D0
:103B7800D3E90023084603914146FFF745FD039B1F
:103B8800DFF854909A4579EB0803064619D3A5FB4C
:103B9800044305FB0B350CA3D3E900232946204633
:103BA800FFF732FDA24579EB0505034609D38642A6
:103BB80007D300220092029A002114683846324640
:103BC800A04707B0BDE8F08F00CA9A3B000000008C
:103BD80054DA0600002D3101FFC99A3B00000000AD
:103BE8002DE9F04786B0404864F05BFF002871D0AB
:103BF8003BA7D7E90067DFF8F0A03C4DDAF80830BA
:103C08004021DB683848984769460D2002F086FD58
:103C180002A90E2002F082FD04A9102002F07EFD08
:103C28000198FFF7EFF832463B46FFF77FFA8046E8
:103C380000988946FFF7E6F802460B464046494693
:103C4800FEF794FF2A4CC4E900010398FFF7DAF85D
:103C580032463B46FFF76AFA804602988946FFF7E4
:103C6800D1F802460B4640464946FEF77FFFC4E9B5
:103C780002010598FFF7C6F832463B46FFF756FAA9
:103C8800804604988946FFF7BDF802460B46404631
:103C98004946FEF76BFFC4E904014FF0FF324FF0CD
:103CA800FF33284636F018FDD4E900231149C1E94D
:103CB8000023D4E90223C1E90223D4E90423C1E99A
:103CC8000423284636F080FD00214FF4004065F0BB
:103CD800F9FA93E7084806B0BDE8F04751F05EB935
:103CE8000000000080842E4114DB0600DC32002036
:103CF800C015002028160020A6300700000000008C
:103D08002DE9F04FD1F88890B5B00C4616460690CC
:103D1800B9F1000F01D1D1F88C90D6F888A0BAF18A
:103D2800000F01D1D6F88CA006F120052946069887
:103D380058F091FC18B1002035B0BDE8F08F069B13
:103D4800D3F8F8104B6B33B128461C3158F054FDAA
:103D580008B10120F0E706980AA904F5C67B58F0D7
:103D680061FC002840F08A80BDF9B230002B00F0D9
:103D780085809DF9B37047B9494658469DF8C420D7
:103D88009DF9B27055F00DFC3F1A42F20F72309B4C
:103D9800934209D16FF47A6140F265730A98421828
:103DA8009A4264D86FF05B032046A7EB030856F0ED
:103DB80068FBD4F8882003460AB9D4F88C200B2174
:103DC8008DF827100DF127010291216D0698CDE994
:103DD800008159460EF032F804904946584694F846
:103DE800542055F0DEFB4946434694F854200546D6
:103DF80058460DF003FFF36F514696F8542081465C
:103E080006F5C6700593D6F864B055F0CAFB049B56
:103E1800059A03F59C5308339A42824699D8306D27
:103E2800B0F57A6F2FDD236DB3F57A6FACBF4FF025
:103E380000084FF0010852F096FE28B1206D52F0AC
:103E480092FE80F00100C0B20BEB0A03ED19079354
:103E58001CD4059B049A03F59C5308339A423FF6F9
:103E68006AAFB9F1190F3FF766AF022745E052F084
:103E78007AFE002896D16FF0580395E7D4E91F38E9
:103E8800676E0493A9E74FF00008D4E7079B03EB9C
:103E9800480808EB4008454515DD0598FEF7A2FFE0
:103EA800824604988B46FEF79DFF4FF033326C4BE9
:103EB800FFF712F802460B4650465946FFF77EFABE
:103EC80000287FF438AF059B049A03F59C53083308
:103ED8009342FFF430AFB9F1190F3FF72CAF15F14A
:103EE800550F54DB15F1500FBFDB15F14B0F50DBAD
:103EF80015F1460FB4BF042705270498FEF772FF93
:103F0800804605988946FEF76DFF0022554B82468C
:103F18008B46FEF7E1FF02460B4640464946FFF74F
:103F28006BFA002837D00A37246D204652F01BFE62
:103F3800002840F08C806FF47A6240F26573144474
:103F48009C428CBF00240124366D304652F00BFE93
:103F580000287ED16FF47A631E4440F265739E4256
:103F68008CBF00260126069BA41BD3F8983C07EBC0
:103F780044002BB19D4203DC079A9A42C8BF02381D
:103F8800079B5B1B9842CCBF00200120D4E6012789
:103F9800B3E70327B1E74FF03332314B5046594668
:103FA800FEF79AFF02460B4640464946FFF724FAB9
:103FB80008B10537B8E728A3D3E900235046594686
:103FC800FEF78AFF02460B4640464946FFF714FAB9
:103FD80008B10237A8E7DDE90423934201D201378B
:103FE800A2E700221F4B40464946FEF775FF0246EE
:103FF8000B4650465946FFF7FFF908B10A3F93E7C9
:104008004FF03332164B40464946FEF765FF0246ED
:104018000B4650465946FFF7EFF908B1053F83E7CD
:104028000DA3D3E9002340464946FEF755FF024653
:104038000B4650465946FFF7DFF908B1023F73E7D0
:10404800DDE90423934288BF07F1FF376CE70224B8
:104058007AE7022687E700BF9A9999999999F13FDB
:104068003333F33F0000F83F2DE9F04F87B00546A2
:1040780017461E460391836804AA5B689847002880
:1040880031DBDDE9044AA7FB04B307FB0A371AA3AF
:10409800D3E900234FF0FF3958463946FFF7B4FA01
:1040A800DFF85C80D94578EB070302901ED312A392
:1040B800D3E90023A6FB04B406FB0A44584621466C
:1040C800FFF7A2FAD94578EB040403460ED3029908
:1040D800AA6899420DD3BDF840102846009114688B
:1040E800DDE90221A04707B0BDE8F08F6FF0850039
:1040F800F9E76FF01500F6E700CA9A3B00000000E8
:10410800FFC99A3B000000002DE9F04F01298446C1
:104118008E4687B064D8002942D033A3D3E9002360
:1041280033A7D7E9006734A5D5E900450FF2D00BCE
:10413800DBE900AB34A1D1E90001CDE9042334A3C4
:10414800D3E90023CDE9002333A3D3E90023CDE944
:10415800022333A3D3E900234FF000084FF00009EE
:10416800CCE90A01DDE90401CCE90C01DDE9000133
:10417800CCE90E01DDE90201CCE910010020CCE90F
:104188000089CCE90289CCE90467CCE90645CCE989
:1041980008ABCCE91223CCF8D0E007B0BDE8F08F2B
:1041A80021A3D3E9002322A7D7E90067CDE9042397
:1041B80021A5D5E9004522A3D3E900230FF2880BF6
:1041C800DBE900ABCDE9002321A1D1E9000122A35D
:1041D800D3E90023CDE9022321A3D3E90023BBE7D8
:1041E8006FF07400D9E700BF310BC0FF6726336753
:1041F800D89E05C15D9DBBCB07D57C362A299A621E
:1042080017DD70305A01599139590EF7D8EC2F152E
:1042180011155868874AB48EA78FF9640D2E0CDBE8
:10422800A44FFABE1D48B547D182E6AD7F520E5164
:1042380008C9BCF367E6096A3BA7CA8485AE67BBB1
:104248001F6C3E2B8C68059B2BF894FE72F36E3C1A
:10425800F1361D5F3AF54FA56BBD41FBABD9831F06
:1042680079217E1319CDE05B30B417A3D3E900237D
:1042780000240025C0E9002315A3D3E90023C0E9E1
:10428800604515A5D5E90045C0E9022314A3D3E983
:104298000023C0E9044514A5D5E90045C0E9062373
:1042A80013A3D3E90023C0E9084513A5D5E90045C0
:1042B800C0E90A2312A3D3E90023C0E90C4530BCA6
:1042C800C0E90E23704700BF08C9BCF367E6096A56
:1042D8003BA7CA8485AE67BB2BF894FE72F36E3C8D
:1042E800F1361D5F3AF54FA5D182E6AD7F520E51EA
:1042F8001F6C3E2B8C68059B6BBD41FBABD9831FA4
:1043080079217E1319CDE05B30B417A3D3E90023DC
:1043180000240025C0E9002315A3D3E90023C0E940
:10432800604515A5D5E90045C0E9022314A3D3E9E2
:104338000023C0E9044514A5D5E90045C0E90623D2
:1043480013A3D3E90023C0E9084513A5D5E900451F
:10435800C0E90A2312A3D3E90023C0E90C4530BC05
:10436800C0E90E23704700BFD89E05C15D9DBBCB39
:1043780007D57C362A299A6217DD70305A0159917F
:1043880039590EF7D8EC2F15310BC0FF6726336764
:1043980011155868874AB48EA78FF9640D2E0CDB67
:1043A800A44FFABE1D48B547F8B5C1F30A560446EE
:1043B8000D4617460B462EBB21F00043034320D081
:1043C8002D4B0022FEF788FD2C4B04460D469F42DC
:1043D80041DBC1F30A560B46363EBA1940F2FE716C
:1043E8008A4217DC002A30DC12F1350F1EDB244E1E
:1043F800363220461E40234B46EA02510022FEF781
:104408006BFDF8BD40F2FF729642E6D10246FEF718
:10441800ADFBF8BD14A3D3E90023ED0F1A481C46E1
:1044280065F3DF742146FEF757FDF8BD05F000443B
:10443800164844F0D27141F4B7310DA3D3E90023F3
:1044480041F01F01FEF748FDF8BD0D4E20461E4005
:1044580046EA0251F8BD06A3D3E90023FEF73CFD66
:10446800F8BD00BFAFF300809C7500883CE4377E40
:1044780059F3F8C21F6EA50100005043B03CFFFF7E
:10448800FFFF0F800000903C9C75008859F3F8C22C
:104498002DE9F04F016C9BB016461F46279D0490EE
:1044A800CDE9026749B1426C0123044693404A6052
:1044B8008B604EF0D9F800232364B7F10009C0F2ED
:1044C800B68000232B607E4B33EA090300F0BA80E4
:1044D8000022DDE90234184621460023CDE908010F
:1044E800FEF762FF804668B10123269A1360289B75
:1044F80013B1744B289A1360DFF8CC8140461BB087
:10450800BDE8F08F18AB0498019319AB0093DDE96F
:1045180008234EF0AFFC83465FEA195540F0A980A6
:10452800DDE91885454405F23243202B40F34D82DE
:10453800C3F1400309FA03F905F2124326FA03F31B
:1045480049EA0300FEF74EFC013D0123A1F1F87191
:10455800109300225D4BFEF707FB53A3D3E900231A
:10456800FEF7BAFC52A3D3E90023FEF7FFFA06468A
:104578000F462846FEF746FC4FA3D3E90023FEF773
:10458800ABFC02460B4630463946FEF7EFFA0646C4
:104598000F46FEF751FF0022824600233046394677
:1045A800FEF70CFF002840F00382A8EB0508BAF1DB
:1045B800160F08F1FF33069300F2A781444E06EB6D
:1045C800CA06DDE90801D6E90023FEF7F7FE002850
:1045D80000F0848000230AF1FF3A0F9308F1FF33BB
:1045E800002BC0F2998100230A93BAF1000F7BDAFD
:1045F8000A9BCDF82CA0A3EB0A030A93CAF1000387
:104608004FF0000A0E93249B092B77D8052B40F313
:10461800E181043B00272493249B023B032B00F2F7
:104628005986DFE813F05404510447042C0401238D
:1046380029F000492B60224BCDF80C9033EA09038E
:104648007FF446AFC9F3130942F20F73269A59EA69
:10465800060913601DD0289BDFF87880002B3FF4F3
:104668004DAF08F10303289A404613601BB0BDE81C
:10467800F08FDDE90812CDF84080A5F2FF35C2F3CE
:1046880013030846DDF8608043F07F5141F4401180
:104698005FE7289BDFF84080002B3FF42FAF08F13D
:1046A8000803E0E7AFF3008061436F63A787D23F59
:1046B800B3C8608B288AC63FFB799F501344D33F09
:1046C8000000F07F012C0700002C07000000F83FD5
:1046D800A0E806009C2C0700902C0700B8F1000FFA
:1046E80040F3B1840F900A90069BCDF82CA0534458
:1046F800069300230E93249B092B87D900230127B7
:10470800CDE924334FF0FF330C970793049B002126
:104718005964079B119304984DF080FF0590002879
:1047280000F0E185079B0E2B8CBF002707F00107DF
:10473800DDE904321A64002F00F01B810B9A002A6D
:1047480040F34A81BC4E02F00F03D4054FEA221809
:1047580006EBC303D3E9006740F17083B74B08F059
:104768000F080325D3E90823DDE90801FEF7DEFC7D
:10477800CDE91201B8F1000F12D0DFF8C09218F09D
:10478800010F08D0304639460135D9E90023FEF734
:10479800A3FB06460F465FEA680809F10809EED14F
:1047A80032463B46DDE91201FEF7C0FC80468946E9
:1047B8000F9B43B10022A24B40464946FEF7FEFD3F
:1047C800002840F047842846FEF71CFB42464B462B
:1047D800FEF782FB9B4B0022FEF7C8F9079B0646B3
:1047E800A1F15077002B00F0AB80079B0B9C129334
:1047F800059B404612995D1CCDE914678E4E06EB69
:10480800C10353E90212CDE916124946FEF714FE18
:1048180000F13007FEF7F6FA02460B4640464946D5
:10482800FFB2FEF7A1F989460C998046DDE9162307
:10483800002900F00F8100208349FEF777FCDDE9AD
:104848001423FEF791F9059E42464B4637700646FB
:104858000F46FEF7D1FD002840F02F850023CDF844
:1048680058A0CDF850B09A46DDF848B012942BE025
:104878000AF1010ADA4580F2BD8430463946002241
:10488800724BFEF729FB0022704B06460F46404646
:104898004946FEF721FB89468046FEF7CDFD0446D2
:1048A800FEF7B0FA02460B46303440464946FEF75A
:1048B8005BF932463B4605F8014B80468946FEF7D0
:1048C8007DFD002840F09C8442464B4600205C4910
:1048D800FEF74AF932463B46FEF770FD0028C7D07E
:1048E800DDF850B02F46129C059902E08F4200F087
:1048F8005F843A4617F8013D392BF7D00133DBB214
:104908003B70DDF8148005926BE101230F9308F1E9
:10491800FF33002BBFF667AEC8F101030A930023EB
:10492800069362E62846FEF76DFA42464B46FEF7C6
:10493800D3FA0022434BFEF719F90646A1F1507746
:10494800404649460022424BFEF70EF932463B46A6
:1049580080468946FEF750FD002840F0AD8340466A
:104968004946324607F10043FEF728FD002840F08B
:10497800D5810B9A199B0E2A02DC002B80F2AD819F
:104988000C9A002A00F0B580249A012A40F3858306
:10499800079A0E9B551EAB42C0F2C782002AA3EBB2
:1049A800050580F25B840A9B079AA3EB0208C9E21B
:1049B8005046FEF727FA32463B46FEF7F5FC00283C
:1049C8007FF4F3AD0AF1FF3AEFE5C3F1200306FAED
:1049D80003F0B7E501271FE600F0A3820B9B164EF4
:1049E8005D4205F00F0306EBC303DDE90801D3E9D7
:1049F8000023FEF771FA2E11CDE9120100F052845E
:104A08000E4C0023022580468946F00709D540460A
:104A180049460135D4E90023FEF75EFA3B46804655
:104A28008946761004F10804EFD1002B7FF4C0AE5C
:104A3800DDE91289BCE600BFA0E8060078E80600B8
:104A48000000F03F00001C400000E03F0000244050
:104A580000001440DDE91401FEF73EFA059B1F70C3
:104A6800129B012BCDE90C0100F00984129F059BD4
:104A7800CDF840A01F440022AA4B40464946FEF705
:104A88002BFA89468046FEF7D7FC8246FEF7BAF92C
:104A980002460B460AF1300A40464946FEF764F8DA
:104AA80005F801ABAF4280468946E4D1DDF840A065
:104AB80000229D4BDDE90C01FEF758F842464B46B3
:104AC800FEF77CFC002840F07B8300209649DDE956
:104AD8000C23FEF749F842464B46FEF78DFC0028AA
:104AE80040F01982199B002B03DB0B9B0E2B40F324
:104AF800F58000230E9DDDF828801E460C93B8F142
:104B0800000F0DDD069900290B4609DD41450A9A7B
:104B1800A8BF4346D21AA8EB0308CB1A0A920693F9
:104B28000E9B53B10C9B13B1002D40F01E825946C9
:104B38000E9A04984DF080FF8346012104984DF0A9
:104B48009BFE0746BAF1000F40F06381249B012BBE
:104B580040F37A81012306990B4413F01F0308D010
:104B6800C3F12002042A00F3B5810AD0C3F13C0343
:104B780000E01C230A9A98441A440A92069A1A4496
:104B880006920A9B002B05DD59461A4604984DF0FB
:104B9800ADFF8346069B002B05DD39461A4604986F
:104BA8004DF0A4FF0746249B022B0F9BD4BF002582
:104BB8000125002B40F0BE80079B002B24DC1DB391
:104BC800079B002B00F08F81259BDDF81480DC43C8
:104BD800394604984DF048FD1EB1314604984DF011
:104BE80043FD594604984DF03FFD00220599631C8A
:104BF8000A70269A1360289B002B3FF47FAC40462E
:104C080019601BB0BDE8F08F0C9B002B00F0AF8043
:104C1800B8F1000F00F3C081BAF1000F40F0D38261
:104C2800B146059D079C6B1E1C44029B089403F02B
:104C38000103049C0A93394658464CF08DFC3146D2
:104C4800824658464DF0C6FF4A46394680462046B9
:104C58004DF0E0FFC26801460AF13003002A40F037
:104C6800A281CDE9060358464DF0B4FF0699069097
:104C780020464DF0F9FC249B069A52EA0301079B53
:104C880040F0C2810A9A002A00F0F282B8F1000FBF
:104C9800C0F2AD81089AA846AA4208F8013B00F084
:104CA800D282594600230A2220464DF0E7FC4E45A1
:104CB800834631464FF000034FF00A02204600F0C9
:104CC8009D814DF0DBFC4946064600230A2220461A
:104CD8004DF0D4FC45468146ADE7144E0B9B06EBE0
:104CE800C306D6E90034CDE90234259B002B80F2B7
:104CF800E881079B002B00F3E481079B73B900222E
:104D08000B4BDDE90201FEF7E7F802460B46DDE949
:104D18000801FEF75DFB002800F0CE8100273E4623
:104D280052E700BF000024400000E03FA0E8060072
:104D380000001440394658464DF04CFF0028BFF695
:104D48003BAF0B9B59460A220498013B0B93002367
:104D58004DF094FC0C9B8346002B40F09282119BF3
:104D6800002B119B079302DC002D7FF429AFDDF89F
:104D780014800125079CDDF8109007E059460023B0
:104D88000A2248464DF07AFC013583463946584692
:104D98004CF0E2FBA54200F1300308F8013BEDDBE3
:104DA800079A0025002ACCBF90464FF00108059AC3
:104DB800904459460122049802934DF097FE3946D3
:104DC80083464DF007FF002840F3E481059A02E08E
:104DD800904500F0D48118F8013CC24608F1FF382C
:104DE800392BF5D001330B9C88F8003039460498EC
:104DF8004DF03AFC002E00F0C8812DB1B54203D029
:104E0800294604984DF030FCDDF81480CDF814A044
:104E1800E3E60146524604984DF00EFE249B0746F1
:104E2800012B40F395804FF0000A3B6907EB8303A1
:104E380018694DF0CDFCC0F120038CE6DDE908349B
:104E48000225CDE9123495E4029B002B7FF482AE53
:104E5800DDE90212C2F31303002B7FF47BAEAD4BE6
:104E6800134033B10A9B01330A93069B013306931F
:104E78000123BAF1000F40F0F9819A466AE601234E
:104E88000C93259B0B9A134411930133012B1D4658
:104E98000793B8BF0125172D40F31382012204237D
:104EA8005B001146013203F11400A842F8D9049BB3
:104EB800596430E401230C93259B002B40F3BE80FA
:104EC8001D4611930793E6E700230C93D9E70023C7
:104ED8000C93F1E7C3F11C030A9A19441A44984445
:104EE8000A9206914DE63946052204984DF0C6FB14
:104EF8000746584639464DF06DFE00287FF764AEE8
:104F0800DDF81480059B0B9C013301340593312394
:104F180088F800305CE63A4617F8013D302BFAD0A5
:104F2800EFE40225DDE9088942E40E9B0E95EB1AB1
:104F380000259A44DDE90632134406930A9B9846F5
:104F480013440A93012104984DF096FC0646D6E5D1
:104F5800029B002B7FF467AFDDE90201C1F3130365
:104F68000A46002B3FF47BAF5DE7049C31462A4696
:104F780020464DF061FD06465A46204631464DF022
:104F8800A9FC5946834620464DF06EFB0E9B5B1BE1
:104F98000E933FF4D2ADCAE53146424604984DF02F
:104FA800A5FD064638E6049806934DF05DFBB8F17A
:104FB800000F069B08DB029A249902F0010248EAD6
:104FC800010852EA08022ED1594601220498029398
:104FD8004DF08CFD394683464DF0FCFD0028029BC0
:104FE80040F36581392B00F031810AF13103AA467B
:104FF8000B9C35464E460AF8013BF7E64DF03EFB62
:1050080045460646814616E6B8F1000FC0F25E81B5
:10501800249948EA01080A9951EA080800F05681DB
:10502800002A7FF737AE392B00F01081AA460133EA
:1050380035460B9C4E460AF8013BD7E601232593DB
:105048000793FFF763BBC8F1010306900F900A931B
:10505800FFF74ABB079B002B3FF464AC119B002B66
:105068007FF787AC0B9A404649461293541E2A4B49
:105078000022FDF731FF80468946681CFDF7C2FE15
:1050880042464B46FDF728FF0022244BFDF76EFDF4
:105098000646A1F15077FFF7ABBB109A002A00F043
:1050A8008B8003F23343069A0E9D1A4406920A9A9D
:1050B80090461A440A9245E70027DDF814803E46D8
:1050C80020E7DDE90889DDE9022340464946FEF785
:1050D8002DF8059FFEF7B0F90546FDF793FEDDE9CB
:1050E8000223FDF7F9FE0B46024649464046FDF706
:1050F8003BFD05F1300307F8013B079B012B00F04E
:105108008980CDF818B00126DDF81C90DDE902ABE6
:1051180022E000BF0000F07F0000244000001C4097
:1051280052465B4620462946FEF700F80136FEF750
:1051380083F98046FDF766FE52465B46FDF7CCFED6
:105148000B46024629462046FDF70EFD08F13003BE
:10515800B14507F8013B5AD00022704BFDF7BCFE61
:105168000022002304460D46FEF71EF90028D7D07A
:10517800DDF818B0DDF814800B9C059731E50B9C21
:105188003123059A0134137030E6DDF81480CDF828
:1051980014A026E503D1029BDB073FF517AE18F8EC
:1051A800013CC24608F1FF38302BF8D00B9C1DE6B5
:1051B80001343123FFF7A4BB189BC3F1360372E710
:1051C8000599FFF796BB716804984DF027FA0546D4
:1051D800002800F08F80336906F10C010C3002338F
:1051E8009A00FDF769FB2946012204984DF07EFCE0
:1051F800814616E5DDF858A0DDF850B0FFF7B9BBD9
:10520800DDF81480DDF850B0129C0595E9E4DDF86E
:1052180018B0454602460B46FDF7A8FC804689466D
:10522800DDE90223FEF7E8F848B940464946DDE9DA
:105238000223FEF7B9F800289CD0E9079AD50B9C01
:105248000599FFF756BB35464E46B2E5A8463923C1
:105258003546059A4E4608F8013BBCE5069B1344C3
:1052680006930A9B984613440A936BE69A46DCE534
:10527800392BEBD0B8F1000F3FF7B7AEB7E62F46A2
:1052880016E4314600230A2204984DF0F7F9119BE1
:105298000646002B119B07933FF7BAAC002D7FF40D
:1052A8008FACB5E4DDE912890225FFF781BA7FF4F6
:1052B8009EAEDA077FF59BAE94E6DDF8148005957F
:1052C8008FE40021049B5964FFF725BA002A3FF7B1
:1052D8007BAE8CE6049B0025184629465D644DF09C
:1052E8009DF9059068B90E4B00224FF4D5710D4811
:1052F80044F0C0FE02460A4B40F2EA21094844F055
:10530800B9FEDDE9043225951A644FF0FF33012216
:1053180011930C920793FFF72CBB00BF00002440A9
:10532800A02C0700B42C07002DE9F04F1C46794B40
:105338009FB00E4600258346186807921A95089074
:1053480045F056FF0021024633460020CDE904010E
:105358009846199313F801ABBAF12D0F5ED801A145
:1053680051F82AF003550000255400002554000088
:105378002554000025540000255400002554000041
:1053880025540000255400005953000059530000CB
:105398005953000059530000595300002554000088
:1053A8002554000025540000255400002554000011
:1053B8002554000025540000255400002554000001
:1053C80025540000255400002554000025540000F1
:1053D80025540000255400002554000025540000E1
:1053E800255400005953000025540000255400009E
:1053F80025540000255400002554000025540000C1
:1054080025540000255400002554000025540000B0
:10541800D75A000025540000F15A000000230993D0
:10542800BAF1300F00F0688200230A93AAF1300322
:10543800092B00F25684002740463D463C46013081
:10544800082C07EB870104F1010405EB850C199082
:1054580090F800A0CCBF03EB410703EB4C05AAF181
:105468003003092BEBD90899089245F0EFFE089A0A
:105478008146002850D1199B014608949818199024
:105488009B5CA3F13002092A00F2F08201319246B6
:105498001998002A40F0F884431C19934378F0E7E0
:1054A8004FF0010EB31C1993B378A3F1300CBCF183
:1054B800090F00F2F582199A302B0B9240F02B83DA
:1054C800013219921378302BFAD0A3F131000B92E4
:1054D800082840F21E8300220C9254BB0A9A0A4301
:1054E80040F09882BAF1000F07D1692B00F0398398
:1054F80040F318826E2B00F01B82079B4FF00008C8
:105508004FF0000903B11E60404649461FB0BDE890
:10551800F08F00BF602F07002AF0200200215346B9
:105528000894452A89468A4600F0AD820C91002CE1
:10553800D4D0089A2846A2461346002A08BF234614
:105548000893FDF74FFC0B460246102CCDE90423C7
:105558000C9BA8BF4FF0100A092CA3EB09030B936F
:1055680017DD544B03EBCA0353E91223FDF7B4FCD0
:10557800024638460F461646FDF734FC02460B46EF
:1055880030463946FDF7F2FA0F2CCDE9040100F355
:10559800E1810B9B002B00F097820B9B40F3A782C5
:1055A800162B40F39A84C4F125030B9A934280F298
:1055B800DA84A4EB0A06164416F00F000AD03D4917
:1055C80001EBC001DDE90423D1E90001FDF784FC0A
:1055D800CDE9040136F00F034ED0B3F59A7F00F3FE
:1055E8004684102B4FEA231640F3B285DFF8C8E053
:1055F8004FF0000CCDF828907746E246F146DDE9F9
:10560800042316F0010F104619464FEA66060AF100
:10561800010A07D0D7E90023FDF75EFC4FF0010C23
:1056280002460B46012E07F10807EAD1CE46DDF8FF
:105638002890BCF1000F01D0CDE90423059B0EEBA7
:10564800CA0E1E4EA3F154730593DDE90423DEE967
:105658000001FDF741FC1A4B0A460B40B342CDE965
:10566800040100F2048417498B4240F2FE844FF093
:10567800FF33154ACDE9043200230A932346089ADA
:105688004146584600954DF04BF81590002800F01B
:10569800EE830B9A4FF0000A0C9B002ACDF820A04D
:1056A800A9EB0303A8BF00230C9322EAE273149327
:1056B800E2E000BFA0E8060078E806000000A07C51
:1056C8000000F07F0000907CFFFFEF7FD21A1F2AB6
:1056D800A4EB020400F3C6820123002593409846F8
:1056E80026443C440A9BA7421E443B46A8BF234687
:1056F800B342A8BF3346002B02DDE41AF61AFF1A9C
:105708000C9B002B00F35482002C00F36A820B9B45
:10571800002B00F39D82002E00F38E82002F08DDFF
:1057280051463A4658464DF0E1F98246002800F0C5
:105738008C824A461A9958464DF06CFA089000280F
:1057480000F08382089A0023D168D3600D915146F6
:105758004DF040FA0028C0F2C584059F00F022846D
:10576800514608984DF0E6FB00224FF0804304466E
:105778000D46FDF72DFE002800F00A820D9B002B38
:1057880040F07C82049B002B40F06183C7F3130335
:10579800002B40F0E6820022AB4B20462946FDF75D
:1057A8000DFE002840F0F5832046A84B294600222C
:1057B800FDF792FB03460C460E90CDE9123401F139
:1057C80000430F93A24EA34B3E409E42DDE90E4597
:1057D80000F05B820A9B23B3B6F1D46F21D8DDE9D0
:1057E800127897A3D3E9002338464146FDF7F0FD28
:1057F800A0B141463846FDF747FE012838BF0120D1
:10580800FDF7F0FA0D9BCDE91201002B40F037832C
:1058180001F1004316901793DDE9164505F1D663AB
:105828009D1BDDE91078384641464DF0A3FA024643
:105838000B4620462946FDF74FFB3A464346FDF7FF
:1058480095F90C46CDE90401814B2340B34203D1BD
:105858000A9B002B00F08E821A9958464CF004FFE0
:10586800494658464CF000FF514658464CF0FCFE5D
:10587800089958464CF0F8FE159C584661684CF05B
:10588800CDFE8146002800F0E081226904F10C0178
:105898000C3002329200FDF70FF81CAB584601930A
:1058A8001BAB0093DDE904341A46CDE910342346D6
:1058B8004DF0E0FA1A90002800F09C81012158462A
:1058C8004CF0DAFF8246002800F0BF811B9B002BBA
:1058D800C0F2AE810C9A149E9F180A9A1C9C9B1ABF
:1058E8005D4A2344C4F13604013B9342FFF6EEAE11
:1058F800012300259846F3E698F8013003F0DF030A
:10590800582B00F0758243460133199393F800A091
:10591800BAF1300FF8D09846BAF1000F7AD00123C7
:105928000A9383E5492B00F01C814E2B7FF4E5ADEB
:105938004A4919A84EF0F0FC00283FF4DEAD199B47
:105948001B78282B00F07E8345484EF0F1FD8046F9
:10595800894663E0A4EB0A060B9B1E44002E3FF722
:105968002BAE3FF489AE764216F00F020AD03D4BBB
:1059780003EBC203DDE90401D3E90023FDF7D6FBFD
:10598800CDE9040136113FF477AE1F2E3FDC16F047
:105998001003354F4FF0000C18BF6A230A93DDE956
:1059A800042316F0010F1046194607D0D7E9002343
:1059B800FDF792FA4FF0010C02460B46761007F1FC
:1059C8000807EED1BCF1000F01D0CDE904230A9BF2
:1059D800A3B1DDE90401C1F30A52C2F16B03002B44
:1059E8000ADD1F2B40F3FA830020342B049040F388
:1059F80021844FF05C7305936A230A9300220023E5
:105A0800DDE90401FDF7D0FC00283FF437AE22237E
:105A1800CBF800304FF000084FF00009079A0AB1A0
:105A2800199B1360099B002B3FF46EAD09F10043ED
:105A38004046994649461FB0BDE8F08FAFF3008055
:105A48000000C0FFFFFFDF410000F03F0000E03F23
:105A58000000F07F0000E07F02FCFFFFBC2D070084
:105A6800B0220700A0E8060068E906004FF0010A26
:105A780023F02002452A7FF42EAD44EA01030A9A56
:105A880013433FF43AAD199E731C199373782B2B6B
:105A980000F023812D2B3FF403AD4FF0000E04E5F9
:105AA800002219960C9218E51C9A03F233430492CB
:105AB8001D9A22F4801242EA03530593210703D565
:105AC800059B43F000430593DDE90489A6E700231D
